:020000040000FA
:1000000090020020C1000000ED020000DD020000AF
:10001000FFFFFFFFFFFFFFFFFFFFFFFFFFFFFFFFF0
:10002000FFFFFFFFFFFFFFFFFFFFFFFF05030000D4
:10003000FFFFFFFFFFFFFFFFEF02000007030000CD
:1000400003010000030100000301000003010000A0
:100050000301000003010000030100000301000090
:1000600003010000FFFFFFFF030100000301000088
:10007000030100000301000003010000FFFFFFFF78
:10008000FFFFFFFF03010000030100000301000068
:100090000301000003010000030100000301000050
:1000A000F103000003010000030100000301000050
:1000B0000301000003010000030100000301000030
:1000C0001048804710488047104800471048016991
:1000D000002910D1416900290DD1816900290AD177
:1000E000C169002907D1BFF34F8F0A490A48C86088
:1000F000BFF34F8FFEE77047FEE7FEE7FEE7FEE740
:10010000FEE7FEE7CD000000090300001D0100002E
:100110000003084000ED00E00400FA0503488546AE
:1001200000F01CF80048004729070000900200205A
:1001300030B50B46014600202022012409E00D467F
:10014000D5409D4205D31D469540491B2546954007
:1001500040191546521E002DF1DC30BD064C01251C
:10016000064E05E0E36807CC2B430C3C984710345F
:10017000B442F7D3FFF7D6FF7C0700009C070000CE
:10018000F0B596460A461349C000461800230025DC
:10019000FF2098402C46104216D0002001219940A3
:1001A0008C461146C1406746394206D087000F2170
:1001B000B9400D437146B9400C43401C0828F0D3A8
:1001C0003068A843204330600833361D082BDEDD3D
:1001D000F0BD00002020024070B5184D0446686B49
:1001E0004607760F00F02EF815492060330000F026
:1001F0009FF9081405070714140E1114606000E03D
:100200006160296A6068052909D3400908E0012076
:10021000C003F3E77D200002F0E70020EEE7C840CE
:10022000A060A96A4903490F072902D0C840E060CD
:1002300070BD0321FFF77CFFF9E700000080084054
:1002400000127A000C490868C869C20F4868400A61
:10025000C007C00F0ED00948002A0BD18869C00D15
:100260000007000F00D110208969044A4902890F54
:100270005043C840704700000080084000127A00D8
:100280001FB541090A4A89008A1800212E2800D189
:100290000221C006C00E1268032383401A40C240E8
:1002A00054186846FFF798FF029804B0E04010BD6C
:1002B00038800840F0B5084F7C6AFD6A3E6B844385
:1002C0008D439643002B02D004430D4316437C62BA
:1002D000FD623E63F0BD00000080084002484168B6
:1002E0000029FCD0704700000000002070477047D4
:1002F0000349C2B20A600A69D205FCD57047000002
:100300000000044070477047F0B534491020C860C1
:100310003349012008603348016B402421430163C5
:1003200031498A68272AFCD1416A0322920291430B
:10033000416241680122D202114341608168C908CB
:10034000C907FBD04168C908C900C91C4160416B9D
:100350004907490F0329FAD1244B1968C908C90074
:10036000491C19600025056241685E15B143416072
:1003700001689F153943016041681A1511434160B6
:1003800081688908C907FBD0016BA143016301683B
:10039000B94301600321090681614168314341602D
:1003A00081684908C907FBD01968C908C900891CB8
:1003B000196005624168C908C900491C4160416B68
:1003C0004907490F0129FAD118681021084318601C
:1003D0001868090208431860F0BD00000081084059
:1003E000008308400080084000A106400002084049
:1003F00070B5124D2021284600F02AF800281CD0A4
:10040000284600F075F80F4C0D4E21687054206896
:10041000305C312802D10CA000F07AF82068315C01
:10042000284600F068F82168491C4806400E206004
:1004300000220221284600F053F870BD000004405D
:100440000C00002000000020596573210A00000004
:100450000069084000D001207047000070B50446D4
:100460000D46C8888988626808432989184B1A4054
:100470001143084369890843606001208007844272
:1004800006D11820FFF7FCFE2968FFF751FE6062D5
:100490001048844206D11A20FFF7F2FE2968FFF7C0
:1004A00047FE60620C48844206D11C20FFF7E8FE3C
:1004B0002968FFF73DFE60620848844206D11E208D
:1004C000FFF7DEFE2968FFF733FE606270BD0000B3
:1004D000FCE0FFFF0000044000100040001004405A
:1004E000002AC26801D00A4300E08A43C260704714
:1004F000006880B270470160704710238B404168EC
:10050000002A01D0194300E0994341607047000080
:100510000FB410B503A9044B044A029800F024F864
:1005200010BC08BC04B01847B90600000800002041
:1005300030B47446641E2578641CAB4200D21D465C
:10054000635D5B00E31830BC184702E008C8121F67
:1005500008C1002AFAD170477047002001E001C1AC
:10056000121F002AFBD17047FFB58DB0044600254D
:1005700006E025280AD0109A0F999047641C6D1C3C
:1005800020780028F5D1284611B0F0BD00270121C0
:10059000484A009700E00743641C23780846203B44
:1005A00098401042F7D120782E2817D10420074315
:1005B0006078641C2A280CD10E98641C02C8009133
:1005C0000E900BE000990A22514330394018641C08
:1005D00000902078014630390929F3D92078002885
:1005E000D1D0642808D0692806D075281ED0109A6A
:1005F0000F9990476D1C5BE00A200E99019001C98C
:100600000E91002802DA40422D2102E0390504D57E
:100610002B216A461172012103E0F90704D0202141
:10062000F7E70BAE0B910DE00021FAE70A200E99D7
:10063000019001C90E91F7E70199FFF779FD30317B
:10064000761E31700028F7D103A8801B203001905E
:10065000780701D5009801E00120009001998842B7
:1006600001DD401A00E000200027009006E002A80B
:10067000109AC05D0F9990476D1C7F1C0B988742A4
:10068000F5DB04E0109A30200F9990476D1C00991B
:10069000481E00900029F5DC05E03078109A761CA1
:1006A0000F9990476D1C0199481E01900029F4DCB8
:1006B000641C65E70928010010B5FFF719FE10BD9D
:1006C0003EB5002421212246490201231046FFF7AE
:1006D000F1FD062210210020FFF752FD0622202105
:1006E0000020FFF74DFDE12040020090FF20013087
:1006F00069468880CC800C814C81094C2046FFF7EC
:10070000ADFE012200212046FFF7F7FE012211462F
:100710002046FFF7F2FE0349A00108603EBD00003D
:100720000000044000E100E0FFF7CAFF0A4D00248A
:1007300021460AA0FFF7ECFE61212846FFF7DBFE09
:10074000641C0A2CF4DB0AA0FFF7E2FE012202215E
:100750002846FFF7C5FEF9E70000044048656C6CC9
:100760006F20576F726C64212025640D0A00000011
:100770004F4B4F4B4F4B2121210A00009C0700009B
:10078000000000200C0000004A050000A80700003F
:100790000C000020840200005A0500000000000048
:0807A000000000000000000051
:04000005000000C136
:00000001FF
