:020000040000FA
:10000000C0040020C1000000C9030000B9030000C3
:10001000FFFFFFFFFFFFFFFFFFFFFFFFFFFFFFFFF0
:10002000FFFFFFFFFFFFFFFFFFFFFFFFE1030000F8
:10003000FFFFFFFFFFFFFFFFCB030000E303000014
:1000400003010000030100000301000003010000A0
:100050000301000003010000030100000301000090
:1000600003010000FFFFFFFF030100000301000088
:10007000030100000301000003010000FFFFFFFF78
:10008000FFFFFFFFD9010000030100000301000092
:10009000030100000301000003010000CD04000083
:1000A00091050000030100000301000003010000AE
:1000B0000301000003010000030100000301000030
:1000C0001048804710488047104800471048016991
:1000D000002910D1416900290DD1816900290AD177
:1000E000C169002907D1BFF34F8F0A490A48C86088
:1000F000BFF34F8FFEE77047FEE7FEE7FEE7FEE740
:10010000FEE7FEE7CD000000E50300001D01000052
:100110000003084000ED00E00400FA0503488546AE
:1001200000F01CF800480047B90A0000C004002095
:1001300030B50B46014600202022012409E00D467F
:10014000D5409D4205D31D469540491B2546954007
:1001500040191546521E002DF1DC30BD064C01251C
:10016000064E05E0E36807CC2B430C3C984710345F
:10017000B442F7D3FFF7D6FF6C0D00008C0D0000E2
:10018000F0B596460A461349C000461800230025DC
:10019000FF2098402C46104216D0002001219940A3
:1001A0008C461146C1406746394206D087000F2170
:1001B000B9400D437146B9400C43401C0828F0D3A8
:1001C0003068A843204330600833361D082BDEDD3D
:1001D000F0BD00002020024010B50A4C204600F07F
:1001E00025F80128FAD1084801880122D2031143D9
:1001F0000180204600F00AF80021204600F00DF8AA
:1002000010BD0000006007407400002041684908EC
:1002100049004160BFF34F8F7047042200290168F5
:1002200001D0114300E09143016070474068C0076E
:1002300000D0012070470029016802D0012211433B
:1002400001E04908490001607047C1607047816062
:100250007047000070B5184D0446686B4607760F6E
:1002600000F02EF815492060330000F099FA0814C8
:1002700005070714140E1114606000E06160296A1C
:100280006068052909D3400908E00120C003F3E7AD
:100290007D200002F0E70020EEE7C840A060A96AD8
:1002A0004903490F072902D0C840E06070BD03210F
:1002B000FFF73EFFF9E700000080084000127A00D7
:1002C0000C490868C869C20F4868400AC007C00FD7
:1002D0000ED00948002A0BD18869C00D0007000F15
:1002E00000D110208969044A4902890F5043C8404F
:1002F000704700000080084000127A001FB54109D5
:100300000A4A89008A1800212E2800D10221C0063D
:10031000C00E1268032383401A40C2405418684636
:10032000FFF798FF029804B0E04010BD3880084005
:10033000F0B5084F7C6AFD6A3E6B84438D4396435B
:10034000002B02D004430D4316437C62FD623E63E2
:10035000F0BD000000800840002A026801D00A4376
:1003600000E08A4302607047002A426801D00A43D5
:1003700000E08A4342607047002A08D0012A09D071
:1003800082688A438260C2688A43C260704782681A
:100390000A43F7E7C2680A43C26082688A43826000
:1003A0007047C069084000D001207047002A01D082
:1003B0004162704781627047024801690029FCD0A0
:1003C0007047000074000020704770470349C2B2B4
:1003D0000A600A69D205FCD570470000000004409D
:1003E00070477047F0B534491020C8603349012088
:1003F00008603348016B40242143016331498A6816
:10040000272AFCD1416A032292029143416241684A
:100410000122D202114341608168C908C907FBD09B
:100420004168C908C900C91C4160416B4907490FAF
:100430000329FAD1244B1968C908C900491C19605D
:100440000025056241685E15B143416001689F1552
:100450003943016041681A15114341608168890878
:10046000C907FBD0016BA14301630168B943016077
:10047000032109068161416831434160816849086F
:10048000C907FBD01968C908C900891C1960056231
:100490004168C908C900491C4160416B4907490FBF
:1004A0000129FAD118681021084318601868090258
:1004B00008431860F0BD0000008108400083084038
:1004C0000080084000A106400002084070B52021CD
:1004D0004C06204600F0F4F800281CD0204600F01E
:1004E0003FF9104DC4B22888000414D42888642829
:1004F00012D20D4E00213046FFF7A9FE28880028B1
:1005000003D101213046FFF788FE288807490918E2
:10051000401C28800C7070BD28880121C903084345
:10052000288070BD74000020006007401801002082
:100530003EB5062204210020FFF722FE06220821F4
:100540000020FFF71DFEE12040020090FF20013057
:10055000694688800020C880088101244881A4075A
:10056000204600F0B3F801221146204600F0F0F8D2
:1005700001220021204600F0F8F801221146204611
:1005800000F0F3F80149E01108603EBD00E100E031
:1005900070B52D4D8021284600F092F82B4C002894
:1005A0001AD0A068002817D0204661681430415C3A
:1005B000284600F0D8F86068401C6060A068C1B2AE
:1005C0006068C0B2814207D10020A060606002462E
:1005D0000221284600F0BCF82021284600F070F8DF
:1005E00000282FD0284600F0BBF8194DE168685468
:1005F000E068295C17A000F0C3F8E068295C1648A1
:10060000312910D0E168695C32290ED0E168695C5B
:1006100034290CD0E168695C35290AD0E168695C4D
:10062000362908D009E0012106E0022104E0042176
:1006300002E0052100E006210160E068401C400660
:10064000400EE06070BD0000000004407400002017
:100650007C01002025630000040000203EB5062236
:1006600010210020FFF78CFD062220210020FFF73B
:1006700087FDE12040020090FF200130694688801C
:100680000020C88008810C4C4881204600F01EF8EC
:1006900001221146204600F05BF80122002120468D
:1006A00000F063F801221146204600F05EF803498D
:1006B000A00108603EBD00000000044000E100E031
:1006C0000069084000D001207047000070B5044662
:1006D0000D46C8888988626808432989184B1A40E2
:1006E0001143084369890843606001208007844200
:1006F00006D11820FFF702FE2968FFF719FD606296
:100700001048844206D11A20FFF7F8FD2968FFF748
:100710000FFD60620C48844206D11C20FFF7EEFDFD
:100720002968FFF705FD60620848844206D11E2053
:10073000FFF7E4FD2968FFF7FBFC606270BD000075
:10074000FCE0FFFF000004400010004000100440E7
:10075000002AC26801D00A4300E08A43C2607047A1
:10076000006880B270470160704710238B40416879
:10077000002A01D0194300E099434160704700000E
:100780000FB410B503A9044B044A029800F024F8F2
:1007900010BC08BC04B01847FD0800000C01002084
:1007A00030B47446641E2578641CAB4200D21D46EA
:1007B000635D5B00E31830BC184702E008C8121FF5
:1007C00008C1002AFAD170477047002001E001C13A
:1007D000121F002AFBD17047FFB581B005460027E4
:1007E00006E025280AD0049A039990476D1C7F1CC7
:1007F00028780028F5D1384605B0F0BD0022697888
:100800006D1C10462E2913D1697804226D1C2A29EB
:1008100009D102996D1C01C9029109E00A235843CC
:10082000303808186D1C29780B46303B092BF5D958
:100830002B78002BDFD0632B07D0732B10D0049ABA
:100840001846039990477F1C2DE002996C460B785F
:100850002370091D0291002161706E46012104E0A0
:10086000029940C902910021C94352070AD50024C8
:1008700000E0641C84420DDA8C42FADB325D002A0F
:10088000F7D107E0002400E0641C8C42FCDB305D03
:100890000028F9D13F1904E03078049A761C0399B6
:1008A0009047641EF8D26D1CA2E700000C498878BE
:1008B000232805D0A2280ED0A3280ED000207047F0
:1008C00008484A7843789A42F9D1C978C078814279
:1008D000F5D10120704702207047032070470000C7
:1008E0001801002000000020034A02E01146491EC2
:1008F000FDD1401EFAD17047FEFF000010B5FFF792
:1009000065FD10BD10B50F4800230371C4780121A7
:100910000D4A012C04D08378A02B03D0002010BDF9
:10092000C37008E043785B1C43704378DB07DB0F40
:100930004370FF23837001714078814388018018E0
:1009400010BD000010010020FC01002010B50120A6
:100950000C49400408600C4864210068FFF7E8FB7C
:100960000A4C01462046FFF770FC00212046FFF7A5
:100970006EFC01212046FFF75EFC00212046FFF7B8
:100980004CFC10BD00E100E00801002000600740C1
:1009900010B5032001210022800489030123FFF701
:1009A000C7FC012202210320FFF7EAFB0D4C0022C5
:1009B00002212046FFF7D0FC022211462046FFF715
:1009C000DBFC012202212046FFF7CEFC0122D403EA
:1009D00021460220FFF7D4FB012221460248FFF7FF
:1009E000BBFC10BD00600B4000400B4010B500F098
:1009F00009F8FFF7ABFFFFF731FEFFF799FDFFF7AF
:100A0000C7FF10BD70B5002443252D0222460123E7
:100A100029461046FFF78CFC0122120401232946C7
:100A20002046FFF785FC70BDF0B5B7B0002400F09C
:100A30003DF8641CA4B20A2CF9D3194801880904B2
:100A40002BD500880025C6B2701E2C46154F00908D
:100A500012E0385D00F014F9395D13A0FFF790FE45
:100A6000052C07D90098844204DA395D01A8415564
:100A70006D1CADB2641CA4B2B442EAD3002601A836
:100A80003E5540194670FFF711FFC0B2012802D150
:100A900001A800F03BF90248068037B0F0BD000025
:100AA00074000020180100202563000010B5FFF736
:100AB00029FF0028FBD110BDFFF798FF1FA0FFF70B
:100AC0005FFE00F0BBF80127204EFF03204D0024FD
:100AD00002213046FFF765FC024639461D48FFF704
:100AE00065FCFFF7A1FFFFF7E1FF686801280BD065
:100AF00002280FD0042814D005281BD00628E7D1DF
:100B00006C6000F0B1F8E3E711486C60623000F00F
:100B100067F8DDE70E486C60503000F061F80EA019
:100B200005E00B486C603E3000F05AF80DA0FFF76E
:100B300027FECDE76C6000F081F8C9E768656C6C52
:100B40006F20776F726C64210A00000000600B4018
:100B50000000002000400B40B7A2CBCDB8F832B364
:100B6000C9B9A600B7A2CBCDB8F834B3C9B9A600AD
:100B700010B50A494A788C789301094AD35CA3429C
:100B800008D94B789B019A188B78D21850708878C6
:100B9000401C00E0FF20887010BD00001001002004
:100BA000FC0100200C4841780C4A8901515C837893
:100BB000FF2299420ED10179002902D0A021817033
:100BC00070474178491C41704178C907C90F41708D
:100BD0000121C1708270704710010020FC010020CB
:100BE00070B5144B1978FF2901D0012070BD124A4D
:100BF00001781170002105E0441855186478491CEB
:100C00006C7089B214788C42F6D8FE200124A407B7
:100C10002060A020187000F059F8054601462046D3
:100C2000FFF7A1FD2269D205FCD5FF2DF3D10020ED
:100C300070BD0000150100207C02002010B509489D
:100C4000FFF7CEFF0320FFF74FFEFFF7EDFE042076
:100C5000FFF74AFE03481030FFF7C2FFFFF7E4FE3C
:100C600010BD00000800002010B50448FFF7B8FFD1
:100C70000420FFF739FEFFF7D7FE10BD100000205B
:100C800010B51049FE2808D0FF2803D00A78012AA1
:100C900006D014E0FFF786FF10BD0120087010BDDC
:100CA00000220A703F2808D88B78FF2BF7D14B78A9
:100CB000054C9B01E0548A7010BD801CC0B2FFF748
:100CC00057FF10BD10010020FC0100200D4B0E4A03
:100CD00019781078A02907D0FF2903D0884205D1C0
:100CE000FF201870FF207047002108E0521850784C
:100CF000FE2803D3801E5070FE207047491C1970D7
:100D000070470000150100207C02002070B5124DD4
:100D1000064600246000201842195178307881423C
:100D200006D1802804D2B17891700CA0FFF728FD7D
:100D3000641CE4B2042CEDD3002460002018411997
:100D40008B784A78295C06A0FFF71AFD641CE4B290
:100D5000032CF2D370BD0000200000202125630089
:100D60002563256325630D0A000000008C0D00003B
:100D70000000002018010000BA070000A40E0000C7
:100D800018010020A8030000CA070000FE07238006
:100D9000000000000680233A061A06FF0680233A68
:100DA000062A06FF0680233A064A06FF061A0006B0
:100DB0002A00064A000000000000000000000000B9
:100DC0000000000000000000000009A2A24A06681E
:100DD000656C7021000000000000000009A2A22A3A
:100DE0000668656C7021000000000000000009A288
:100DF000A21A0668656C7021000000000000000067
:100E000000000000000000000000000000000000E2
:100E10000000000041424344450000000000000083
:100E200000000000000000000000000000000000C2
:100E300000000000000000000000000000000000B2
:100E400000000000000000000000000000000000A2
:100E50000000000000000000000000000000000092
:100E60000000000000000000000000000000000082
:100E70000000000000000000000000000000000072
:100E80000000000000000000000000000000000062
:100E900000000000006CDC02000000000000FF0009
:040EA00000FF00004F
:04000005000000C136
:00000001FF
